:100000000C945F190C947C190C947C190C947C1939
:100010000C947C190C947C190C947C190C947C190C
:100020000C947C190C947C190C947C190C947C19FC
:100030000C947C190C947C190C947C190C947C19EC
:100040000C947C190C947C190C947C190C947C19DC
:100050000C947C190C947C190C947C190C947C19CC
:100060000C947C190C947C190C947C190C947C19BC
:100070000C947C190C947C190C947C190C947C19AC
:100080000C947C190C947C190C947C190C947C199C
:100090000C947C190C947C190C947C190C947C198C
:1000A0000C947C190C947C190C947C1905A84CCDEB
:1000B000B2D44EB93836A9020C50B9918688083CA2
:1000C000A6AAAA2ABE000000803F0664EC1B3C04DE
:1000D000BC163E3BE5B93CC93C37C29E5A3D66045E
:1000E00098083EEA69AAAA3E000000803F0018175F
:1000F000205F000000000000000000000000000081
:1001000000000000000000000000000000000000EF
:1001100000000000000000000000000000000000DF
:1001200000000000000000000000000000000000CF
:1001300000000000000000000000000C00000C00A7
:10014000000C000018000018000018000018000043
:1001500010000010000030000030000020000020DF
:1001600000000000000000006000006000000000CF
:10017000000000000000000000000000000000007F
:100180006600006600006600004400004400004471
:10019000000000000000000000000000000000005F
:1001A000000000000000000000000000000000004F
:1001B000000000000000000000000000000000003F
:1001C00000000000006300006300006300006600A0
:1001D00007FF8007FF8000C60000C60000CC0001BA
:1001E0008C0007FF8007FF80018C00019800031836
:1001F00000031800031800000000000000000000C9
:10020000000000000000000600003E0000FF0000AB
:10021000CD80018D80018C00018C0001CC0000F8A4
:1002200000007C00001E00001B00001B00063300C5
:1002300006330003360003FE0000FC0000600000EF
:1002400060000000000000000000000000000F80BF
:10025000C01FC18018C30038C60030C60031CC00B2
:100260003198003F98001E30000067C000CFE000CA
:10027000CC60019C600318600318E00618C00C1FD6
:10028000C0180F0000000000000000000000000087
:10029000000000003C00007E0000E30000C30000FE
:1002A000C30000C60000DE0000780001F00003B0CB
:1002B00000071880061DC0060F80060700070F8084
:1002C00003F9C001F0800000000000000000000001
:1002D0000000000000000000000C00000C00000CFA
:1002E00000000800000800000800000000000000F6
:1002F00000000000000000000000000000000000FE
:1003000000000000000000000000000000000000ED
:10031000000000000000000000000000000001805C
:10032000000300000600000C00000C000018000094
:100330001800003000003000003000006000006055
:1003400000006000006000006000006000006000CD
:100350000060000030000030000030000018000095
:100360000000006000003000003000003000001885
:100370000000180000180000180000180000180005
:1003800000180000180000300000300000300000AD
:10039000600000600000C00000C000018000030099
:1003A00000060000000000000C00000C00007F8030
:1003B000001E00001E0000330000120000000000BC
:1003C000000000000000000000000000000000002D
:1003D000000000000000000000000000000000001D
:1003E000000000000000000000000000000000000D
:1003F000000000000000000000300000300000306D
:100400000000300003FF0003FF0000300000300058
:10041000003000003000000000000000000000007C
:1004200000000000000000000000000000000000CC
:1004300000000000000000000000000000000000BC
:1004400000000000000000000000000000000000AC
:10045000000000000000000000000000000000603C
:10046000000060000020000020000040000080002C
:10047000000000000000000000000000000000007C
:10048000000000000000000000000000000000006C
:100490000000000000FE0000FE0000000000000060
:1004A000000000000000000000000000000000004C
:1004B000000000000000000000000000000000003C
:1004C000000000000000000000000000000000002C
:1004D000000000000000000000000000000000001C
:1004E00000000000000000000030000030000000AC
:1004F00000000000000000000000000000000000FC
:100500000001800003000003000006000006000058
:100510000C00000C000018000038000030000060E3
:100520000000600000C00000C000018000018000E9
:1005300003000000000000000000000000000000B8
:100540000000000000003C00007F0000E30001C14B
:100550008001818003018003018003018006018006
:10056000060380060300060300060600060E0003CD
:100570001C0003F80000F000000000000000000074
:100580000000000000000000000000010000030067
:10059000000700001E00003E0000760000C60000BC
:1005A0000C00000C00000C00000C000018000018EB
:1005B00000001800001800003000003000000000AB
:1005C000000000000000000000000000000000002B
:1005D0003E00007F0000E38001C1800181800001B6
:1005E00080000380000300000E00001C00003800A3
:1005F00000700000C00001800003000007FF00073A
:10060000FF000000000000000000000000000000EB
:1006100000000000003E00007F0000C380018180D8
:10062000008180000180000300001E00003E0000E9
:100630000700000300000300060300060700030E86
:100640000003FC0000F800000000000000000000B3
:100650000000000000000000000003000007000090
:100660000F00001E0000360000660000660000C695
:1006700000018600030C00060C0007FF0007FF00C6
:10068000000C000018000018000018000000000016
:100690000000000000000000000000000000007FDB
:1006A00080007F8000600000C00000C00000DE000D
:1006B00000FF0001C38001818000018000018000F3
:1006C0000180060380060300030E0003FC0000F80F
:1006D000000000000000000000000000000000001A
:1006E000000000001E00007F0000638000C1800148
:1006F000C00001BC0001FE0003C700038300030328
:1007000000030300030300030300030600018E003F
:1007100001FC000078000000000000000000000064
:10072000000000000000000001FFC001FFC0000148
:1007300080000300000600000C00001C00001800F0
:1007400000300000300000600000600000C00000C9
:10075000C00000C000018000018000000000000017
:1007600000000000000000000000000000003E004B
:1007700000FF0000C3800181800181800181800031
:10078000C30000FE0001FE0003870007030006030C
:1007900000060300060700070E0003FC0000F80037
:1007A0000000000000000000000000000000000049
:1007B0000000003C00007F0000E30000C1800181D8
:1007C0008001818001818001818001838001C78057
:1007D00000FF00007B00000700030600038C0001FF
:1007E000FC0000F00000000000000000000000001D
:1007F00000000000000000000000000000000000F9
:10080000000000000C00000C0000000000000000D0
:1008100000000000000000000000000000000000D8
:100820000000000000300000300000000000000068
:1008300000000000000000000000000000000000B8
:100840000000000000000000001800001800000078
:100850000000000000000000000000000000000098
:1008600000000000000000000000600000600000C8
:100870002000002000004000008000000000000078
:100880000000000000000000000000010000070060
:10089000001E0000780001C00003000001C000003D
:1008A0007800001E000007000001000000000000AA
:1008B0000000000000000000000000000000000038
:1008C0000000000000000000000000000000000028
:1008D000000000000003FF0003FF00000000000014
:1008E0000000000003FF0003FF0000000000000004
:1008F00000000000000000000000000000000000F8
:1009000000000000000000000000000000000000E7
:100910000000000002000003800001E000007800F9
:10092000000E00000300000E0000780001E000034C
:100930008000020000000000000000000000000035
:1009400000000000000000000000000000000000A7
:10095000003E0000FF0000C3800181800001800094
:100960000300000700000E00001C000038000030EB
:100970000000600000600000000000000000C000F7
:1009800000C00000000000000000000000000000A7
:10099000000000000001FC0007FF000F07801C01A1
:1009A000C038E6E073F660631C30660C30C60C306D
:1009B000CC0C30CC0C30CC0C30CC1C60CC18E0C64D
:1009C00039C067FF80638E003000383800701E0128
:1009D000E007FF8001FE00000000001C00001C007A
:1009E00000360000360000660000660000C6000009
:1009F000C60001830001830003FF0003FF0006031C
:100A0000000603000C03000C0180180180000000A8
:100A100000000000000000000000000000000001D5
:100A2000FE0001FF000183800301800301800301B8
:100A30008003030003FE0003FF000603800601801D
:100A40000601800601800603800C07000FFE000FE0
:100A5000FC0000000000000000000000000000009A
:100A600000000000003F0000FF8001C1C00380E0E3
:100A70000700600600000E00000C00000C00000CD7
:100A800000000C00000C00C00C018006038007076A
:100A90000003FE0000F8000000000000000000005D
:100AA00000000000000000000001FE0001FF8003C4
:100AB00001C00300C0030060030060060060060080
:100AC000600600600600600600C00C00C00C01C09B
:100AD0000C03800C07001FFE001FF8000000000040
:100AE000000000000000000000000000000001FF06
:100AF000E001FFE0018000030000030000030000AC
:100B000003000003FF8007FF000600000600000648
:100B100000000600000600000C00000FFF800FFF21
:100B20008000000000000000000000000000000045
:100B300000000000FFC000FFC00180000180000134
:100B4000800001800003000003FF8003FF0003001A
:100B50000007000006000006000006000006000076
:100B60000C00000C0000000000000000000000006D
:100B70000000000000000000007F0001FF8003C1B2
:100B8000C00700600600600C00000C0000180000A8
:100B9000183FE0183FC01800C01800C01800C00C73
:100BA00001800F078007FF0001FC0000000000002B
:100BB00000000000000000000000000000030060D2
:100BC0000300600300600600C00600C00600C00607
:100BD00000C007FFC00FFFC00C01800C01800C019A
:100BE000800C01800C01801803001803001803001A
:100BF00000000000000000000000000000000000F5
:100C00000000000C00000C00000C00001800001890
:100C10000000180000180000180000380000300024
:100C200000300000300000300000300000600000A4
:100C300060000060000000000000000000000000F4
:100C40000000000000000000018000018000018021
:100C50000003000003000003000003000003000085
:100C6000030000060000060000060003060003065D
:100C700000038C0001FC0000F000000000000000F8
:100C800000000000000000000000000000C0600044
:100C9000C0C0018180018300018600018C0003181F
:100CA0000003700003F800039800070C00060C0016
:100CB0000606000606000603000C03000C01800077
:100CC0000000000000000000000000000000000024
:100CD0000000C00000C00000C000018000018000D2
:100CE00001800001800001800003800003000003F8
:100CF000000003000003000003000006000007FFDF
:100D00000007FE00000000000000000000000000DE
:100D100000000000000003C07803C07803C0F8069C
:100D2000C0D006C1B006C1B006C33006C33006C687
:100D3000300CC6600CCC600CCC600C68600C786029
:100D40001870C01870C01860C000000000000000DB
:100D5000000000000000000000000003806003802D
:100D60006003C06006C0E006C0C00660C00660C088
:100D70000630C00E30C00C39800C19800C19800C64
:100D80001D800C0D80180F001807001807000000C8
:100D90000000000000000000000000000000000053
:100DA000007C0001FF000387800701800E01C00C5A
:100DB00000C01C00C01800C01800C01800C01801F6
:100DC000C01801801C03800C07000F0E0007FC00F8
:100DD00001F0000000000000000000000000000022
:100DE000000000000000FF8000FFC00180E00180E3
:100DF000600180600180600300C00301C003FF80C8
:100E000003FE0007000006000006000006000006C2
:100E100000000C00000C00000000000000000000BA
:100E200000000000000000000000007C0001FF0046
:100E30000383800701800E01C00C00C01C00C01895
:100E400000C01800C01800C01801C01811801C3B59
:100E5000800C1F000F0E0007FE0001F700000300CA
:100E6000000100000000000000000000000000037E
:100E7000FF8003FFC00300E006006006006006007C
:100E8000600601C007FF800FFF000C0C000C06007D
:100E90000C06000C03000C030018018018018018D8
:100EA00000C0000000000000000000000000000082
:100EB00000000000007C0000FF0001C300018180F1
:100EC00001818001800000E00000F000003C000093
:100ED0000E000007000603000603000603000306D9
:100EE0000003FE0000F80000000000000000000009
:100EF00000000000000000000003FFE003FFE0002E
:100F00001800001800001800003000003000003009
:100F10000000300000300000600000600000600051
:100F200000600000600000C00000C0000000000081
:100F300000000000000000000000000000000300AE
:100F400030030030030030070060060060060060D8
:100F50000600600600C00600C00C00C00C00C00CFB
:100F600001C00C01800C038007070007FE0001F898
:100F70000000000000000000000000000000000071
:100F8000000000018030018030018060018060013C
:100F900080C00181C001818000C30000C30000C681
:100FA0000000C60000CC0000CC0000D80000D80033
:100FB0000070000060000000000000000000000061
:100FC0000000000000000000600C03601C03601CB7
:100FD00006603C06606C0C606C0C60CC1870CE38FF
:100FE000718E30318E603306603606C03606C03CE6
:100FF00007803C0780380700380700000000000029
:1010000000000000000000000000000000030018C5
:1010100001803001806000C0C000E18000630000FA
:101020003600003C00001800003800006C0000CCC6
:10103000000186000303000603000C0180180180F4
:1010400000000000000000000000000000000000A0
:1010500000000300600180600180C001C18000C108
:101060008000C300006600006600003C00003800FD
:101070000018000030000030000030000030000098
:1010800060000060000000000000000000000000A0
:101090000000000000000003FF8003FF80000180CB
:1010A000000300000600000C0000180000300000E3
:1010B000700000600000C000018000030000060016
:1010C000000C00000FFF000FFF00000000000000F8
:1010D000000000000000000000000000000F800081
:1010E0000F80000C00001800001800001800001805
:1010F0000000180000300000300000300000300018
:10110000003000003000006000006000006000005F
:10111000600000600000C00000F80000F80000005F
:1011200000003000003000003000001800001800FF
:10113000001800001800001800001C00000C00003F
:101140000C00000C00000C00000C00000600000663
:101150000000060000000000000000000000000089
:10116000000000000000003E00003E0000060000FD
:101170000600000C00000C00000C00000C00000C2D
:1011800000001800001800001800001800003800C7
:10119000003000003000003000003000006000002F
:1011A000600003E00003E000000000001800003CC5
:1011B00000003C0000660000660000660000C300FE
:1011C00000C300018180000000000000000000005A
:1011D000000000000000000000000000000000000F
:1011E00000000000000000000000000000000000FF
:1011F00000000000000000000000000000000000EF
:1012000000000000000000000000000000000000DE
:1012100000000000000000000000000000000000CE
:101220000000000000000000000000003FFF003F41
:10123000FF00000000003800001800001800000C3B
:10124000000000000000000000000000000000009E
:10125000000000000000000000000000000000008E
:10126000000000000000000000000000000000007E
:10127000000000000000000000000000000000006E
:10128000000000000000007C0001FE000187000358
:10129000030000030000FF0003FF0007060006062E
:1012A00000060600071E0003FE0001E60000000025
:1012B000000000000000000000000000000000002E
:1012C000C00000C00000C000018000019E0001FFBE
:1012D0000001E3800181800381800301800301809C
:1012E000030180030300030300078E0006FC0006D1
:1012F0007800000000000000000000000000000076
:1013000000000000000000000000000000000000DD
:10131000003E00007F0000C3800181800180000347
:101320000000030000030000030300030600038E17
:101330000001FC0000F800000000000000000000B8
:101340000000000000000000000000C00000C0001D
:1013500001C000018000798000FD8001C780030387
:101360008003038006030006030006030006030053
:10137000060700070E0003FE0001F6000000000053
:10138000000000000000000000000000000000005D
:1013900000000000000000000000007C0000FF00D2
:1013A00001C30003018003018007FF8007FF80065F
:1013B0000000060000060300030E0003FC0000F816
:1013C000000000000000000000000000000000001D
:1013D000000000000780000F80000C00000C0000DF
:1013E0007F00007F0000180000180000180000189F
:1013F00000003000003000003000003000003000FD
:10140000006000006000000000000000000000001C
:1014100000000000000000000000000000000000CC
:101420000000000000730001FB00018F00030700B3
:10143000030700060600060600060600060600066C
:101440000E00031C0003FC0001EC00000C00061C55
:101450000006180003F00001E00000000000C000DA
:1014600000C00000C000018000019E0001BF00011B
:10147000E300018300038300030300030700030666
:1014800000030600030600060600060C00060C001A
:10149000000000000000000000000000000000004C
:1014A0000000000C00000C0000000000000000180C
:1014B000000018000018000018000018000030009C
:1014C00000300000300000300000300000600000FC
:1014D000600000600000000000000000000000004C
:1014E00000000000000000000C00000C00000000E4
:1014F000000000001800001800001800001800008C
:1015000010000030000030000030000030000030DB
:1015100000006000006000006000006000006000EB
:1015200000E00003C0000380000000000030000065
:10153000300000600000600000618000630000C6B1
:101540000000CC0000D80000F80001EC0001CC0045
:10155000018C0001860001860003030003030000E4
:10156000000000000000000000000000000000007B
:1015700000000C00000C00000C0000180000180017
:1015800000180000180000180000180000300000CB
:1015900030000030000030000030000060000060CB
:1015A00000006000000000000000000000000000DB
:1015B000000000000000000000000000000000002B
:1015C00000000671E00DFBF00D1E300E1C300C18F3
:1015D000300C1830183870183060183060183060CF
:1015E0001830603060C03060C000000000000000B3
:1015F00000000000000000000000000000000000EB
:101600000000000000000000CE0000FF0001E30029
:1016100001C300018300018300018300030600036E
:101620000600030600030600060C00060C0000007E
:1016300000000000000000000000000000000000AA
:10164000000000000000000000000000007C00001E
:10165000FF0001C3000381800301800601800601B1
:1016600080060180060300060700030E0003FC004D
:1016700000F8000000000000000000000000000072
:10168000000000000000000000000000000000005A
:1016900000019E0001FF0001C3800381800381805F
:1016A0000301800301800301800303000707000793
:1016B0008E0006FC000678000600000600000E0002
:1016C000000C00000C000000000000000000000002
:1016D00000000000000000798001FD80018500030A
:1016E00007000303000603000607000606000606BF
:1016F00000060E00071E0003FC0001CC00000C00D9
:10170000000C000018000018000018000000000085
:101710000000000000000000000000001980001B15
:1017200080003400003800003000003000007000FD
:1017300000600000600000600000600000C0000069
:10174000C0000000000000000000000000000000D9
:101750000000000000000000000000000000000089
:10176000003C00007E0000C70000C30000E0000055
:101770007000003C00000E00030600030600038E0C
:101780000001FC0000F80000000000000000000064
:10179000000000000000000000000400000C000039
:1017A0001800001800003E00003E0000180000185D
:1017B0000000180000180000300000300000300069
:1017C000003000003000003C00003C000000000041
:1017D0000000000000000000000000000000000009
:1017E0000000000000000000000000C18000C18077
:1017F00001830001830001830001830003060003CD
:101800000600030600030E00031C0003FC0001CCCD
:1018100000000000000000000000000000000000C8
:1018200000000000000000000000000000000001B7
:1018300080C001818001818000C30000C30000C618
:101840000000C60000CC0000CC0000D8000058000A
:1018500000700000700000000000000000000000A8
:101860000000000000000000000000000000000078
:10187000000000001830601830601870400870C018
:101880000C58C00CD9800CD9800D89000D8B000D2F
:101890000B00050A00070E00060C00000000000007
:1018A0000000000000000000000000000000000038
:1018B00000000000000000000001830000C60000DE
:1018C000CC00006C00007800003000007000007058
:1018D0000000D800019800018C00030C00060600EF
:1018E00000000000000000000000000000000000F8
:1018F0000000000000000000000000000000018067
:10190000C001818001818000830000C30000C60007
:1019100000C60000CC0000D8000058000070000095
:10192000700000600000600000C00000C000078080
:1019300000070000000000000000000000000000A0
:1019400000000001FF0001FF00000600000C000085
:10195000180000100000300000600000C00001808E
:101960000003000007FC0007FC000000000000006E
:1019700000000000000000000000000000038000E4
:101980000780000E00000C00000C00000C00001886
:101990000000180000180000300000E00000E00027
:1019A0000030000030000030000030000030000047
:1019B0006000006000006000007000003000000067
:1019C0000000600000600000600000600000600037
:1019D0000060000060000060000060000060000027
:1019E00060000060000060000060000060000060B7
:1019F0000000600000600000600000600000600007
:101A0000006000000000001800001C00000C000036
:101A10000C00000C00001C0000180000180000184A
:101A200000001800000E00000E000018000030003A
:101A30000030000030000070000060000060000016
:101A4000600003C0000380000000000000000000F0
:101A50000000000000000000000000000000000086
:101A600001E00003F880023F80000F00000000004A
:101A70000000000000000000000000000000000066
:101A800000000000000000000000000000203230D4
:101A90000A000000000000000000FFFE0001FFFF40
:101AA0000003FFFF8001FFFF600CFFFEF01E00013E
:101AB000F83F0001F83F0001F83F0001F83F000146
:101AC000F83F0001F83F0001F83F0001F83F000136
:101AD000F83F0001F83F0001F83F0001F83F000126
:101AE000F83F0001F83E00007838000018200000A0
:101AF000080000000020000000380000183E000030
:101B0000783F0001F83F0001F83F0001F83F000175
:101B1000F83F0001F83F0001F83F0001F83F0001E5
:101B2000F83F0001F83F0001F83F0001F83F0001D5
:101B3000F83F0001F83F0001F81E0000F00CFFFE26
:101B40006001FFFF0003FFFF8001FFFF0000FFFEB9
:101B50000000000000000000000000000000000085
:101B60000000000000000000000000000000000075
:101B700060000000F0000001F8000001F800000122
:101B8000F8000001F8000001F8000001F800000171
:101B9000F8000001F8000001F8000001F800000161
:101BA000F8000001F8000001F8000001F800000052
:101BB000780000001800000008000000000000008D
:101BC000000000001800000078000001F80000018B
:101BD000F8000001F8000001F8000001F800000121
:101BE000F8000001F8000001F8000001F800000111
:101BF000F8000001F8000001F8000001F800000101
:101C0000F8000000F000000060000000000000008C
:101C100000000000000000000000000000000000C4
:101C200000000000000000000000FFFE0001FFFFB8
:101C30000003FFFF8001FFFF6000FFFEF0000001D6
:101C4000F8000001F8000001F8000001F8000001B0
:101C5000F8000001F8000001F8000001F8000001A0
:101C6000F8000001F8000001F8000001F800000190
:101C7000F8000001F80000007801FFFE1803FFFFE4
:101C8000880FFFFFE027FFFFC039FFFF003E000085
:101C9000003F0000003F0000003F0000003F000048
:101CA000003F0000003F0000003F0000003F000038
:101CB000003F0000003F0000003F0000003F000028
:101CC000003F0000003F0000001E0000000CFFFE6F
:101CD0000001FFFF0003FFFF8001FFFF0000FFFE88
:101CE00000000000000000000000000000000000F4
:101CF0000000FFFE0001FFFF0003FFFF8001FFFF68
:101D00006000FFFEF0000001F8000001F800000193
:101D1000F8000001F8000001F8000001F8000001DF
:101D2000F8000001F8000001F8000001F8000001CF
:101D3000F8000001F8000001F8000001F8000000C0
:101D40007801FFFE1803FFFF880FFFFFE007FFFF8A
:101D5000C001FFFF1800000078000001F80000013A
:101D6000F8000001F8000001F8000001F80000018F
:101D7000F8000001F8000001F8000001F80000017F
:101D8000F8000001F8000001F8000001F80000016F
:101D9000F8000000F000FFFE6001FFFF0003FFFFFE
:101DA0008001FFFF0000FFFE0000000000000000B7
:101DB0000000000000000000000000000000000023
:101DC0000000000000000000600C0000F01E000198
:101DD000F83F0001F83F0001F83F0001F83F000123
:101DE000F83F0001F83F0001F83F0001F83F000113
:101DF000F83F0001F83F0001F83F0001F83F000103
:101E0000F83F0001F83E00007839FFFE1823FFFF7D
:101E1000880FFFFFE007FFFFC001FFFF1800000071
:101E200078000001F8000001F8000001F80000014E
:101E3000F8000001F8000001F8000001F8000001BE
:101E4000F8000001F8000001F8000001F8000001AE
:101E5000F8000001F8000001F8000000F0000000A8
:101E60006000000000000000000000000000000012
:101E70000000000000000000000000000000000062
:101E80000000FFFE0001FFFF0003FFFF8001FFFFD6
:101E9000000CFFFE001E0000003F0000003F00009D
:101EA000003F0000003F0000003F0000003F000036
:101EB000003F0000003F0000003F0000003F000026
:101EC000003F0000003F0000003F0000003E000017
:101ED0000039FFFE0023FFFF800FFFFFE007FFFF39
:101EE000C001FFFF1800000078000001F8000001A9
:101EF000F8000001F8000001F8000001F8000001FE
:101F0000F8000001F8000001F8000001F8000001ED
:101F1000F8000001F8000001F8000001F8000001DD
:101F2000F8000000F000FFFE6001FFFF0003FFFF6C
:101F30008001FFFF0000FFFE000000000000000025
:101F400000000000000000000000FFFE0001FFFF95
:101F50000003FFFF8001FFFF000CFFFE001E0000DA
:101F6000003F0000003F0000003F0000003F000075
:101F7000003F0000003F0000003F0000003F000065
:101F8000003F0000003F0000003F0000003F000055
:101F9000003F0000003E00000039FFFE0023FFFF6D
:101FA000800FFFFFE027FFFFC039FFFF183E000052
:101FB000783F0001F83F0001F83F0001F83F0001C1
:101FC000F83F0001F83F0001F83F0001F83F000131
:101FD000F83F0001F83F0001F83F0001F83F000121
:101FE000F83F0001F83F0001F81E0000F00CFFFE72
:101FF0006001FFFF0003FFFF8001FFFF0000FFFE05
:1020000000000000000000000000000000000000D0
:102010000000FFFE0001FFFF0003FFFF8001FFFF44
:102020006000FFFEF0000001F8000001F800000170
:10203000F8000001F8000001F8000001F8000001BC
:10204000F8000001F8000001F8000001F8000001AC
:10205000F8000001F8000001F8000001F80000009D
:1020600078000000180000000800000000000000D8
:10207000000000001800000078000001F8000001D6
:10208000F8000001F8000001F8000001F80000016C
:10209000F8000001F8000001F8000001F80000015C
:1020A000F8000001F8000001F8000001F80000014C
:1020B000F8000000F00000006000000000000000D8
:1020C0000000000000000000000000000000000010
:1020D00000000000000000000000FFFE0001FFFF04
:1020E0000003FFFF8001FFFF600CFFFEF01E0001F8
:1020F000F83F0001F83F0001F83F0001F83F000100
:10210000F83F0001F83F0001F83F0001F83F0001EF
:10211000F83F0001F83F0001F83F0001F83F0001DF
:10212000F83F0001F83E00007839FFFE1823FFFF5A
:10213000880FFFFFE027FFFFC039FFFF183E0000B8
:10214000783F0001F83F0001F83F0001F83F00012F
:10215000F83F0001F83F0001F83F0001F83F00019F
:10216000F83F0001F83F0001F83F0001F83F00018F
:10217000F83F0001F83F0001F81E0000F00CFFFEE0
:102180006001FFFF0003FFFF8001FFFF0000FFFE73
:10219000000000000000000000000000000000003F
:1021A0000000FFFE0001FFFF0003FFFF8001FFFFB3
:1021B000600CFFFEF01E0001F83F0001F83F000137
:1021C000F83F0001F83F0001F83F0001F83F00012F
:1021D000F83F0001F83F0001F83F0001F83F00011F
:1021E000F83F0001F83F0001F83F0001F83E000011
:1021F0007839FFFE1823FFFF880FFFFFE007FFFF7E
:10220000C001FFFF1800000078000001F800000185
:10221000F8000001F8000001F8000001F8000001DA
:10222000F8000001F8000001F8000001F8000001CA
:10223000F8000001F8000001F8000001F8000001BA
:10224000F8000000F000FFFE6001FFFF0003FFFF49
:102250008001FFFF0000FFFE000000000000000002
:10226000001010205F0000000000000000000000CF
:10227000000000000000000000000000000000005E
:1022800000000000000000000007000F800F800F1A
:10229000800F800F80070007000000000007000784
:1022A000000700000000000E380E380E380E380609
:1022B00030000000000000000000000000000000EE
:1022C000000000000000000C300C300C307FFE7F5E
:1022D000FE0C300C300C300C307FFE7FFE0C300CCE
:1022E000300C3000000000024002400FF81FF81AC6
:1022F000401A401FF00FF8025802581FF81FF00252
:1023000040024000000000000000000E100E300EE1
:102310007000E001C0038007000E700C70087000B0
:102320000000000000000000000F00198019801953
:10233000800F000F080F9819F818F018E019F00F27
:102340009800000000000000000700070007000ED2
:10235000000000000000000000000000000000007D
:1023600000000000000000000000F001C003800732
:10237000000E000E000E000E000700038001C000DA
:10238000F000000000000000000F00038001C0000A
:10239000E0007000700070007000E001C003800F6A
:1023A0000000000000000000000180118809900773
:1023B000E007E03FFC3FFC07E007E00990118801DF
:1023C000800000000000000000000000000180010B
:1023D0008001800FF00FF00180018001800000007B
:1023E00000000000000000000000000000000000ED
:1023F00000000000000000000000000700070007C8
:10240000000E0000000000000000000000000000BE
:102410000000001FF81FF80000000000000000008E
:1024200000000000000000000000000000000000AC
:102430000000000000000000000000070007000787
:1024400000000000000000000000020006000E0076
:102450001C0038007000E001C0038007000E001C63
:102460000000000000000000000FF01C381C781C69
:10247000F81CF81DB81DB81F381F381E381C380F3F
:10248000F000000000000000000180018003801FB8
:10249000801F800380038003800380038003801FEC
:1024A000F000000000000000000FE01C701C38006D
:1024B00038007000E001C0038007000E381C381F90
:1024C000F800000000000000000FE01C701C380045
:1024D00038007003C003C0007000381C381C700F37
:1024E000E0000000000000000000E001E003E00662
:1024F000E00CE018E01FF81FF800E000E000E00347
:10250000F800000000000000001FF81C001C001C68
:10251000001C001FE01FF0007800381C381C700FF2
:10252000E0000000000000000003E007000E001CB7
:10253000001C001FF01FF81C381C381C381C380FFA
:10254000F000000000000000001FFC1C1C1C1C1CF4
:102550001C001C0038007000E001C00380038003F1
:102560008000000000000000000FF01C381C381C28
:10257000381F3807E007E01CF81C381C381C380FDF
:10258000F000000000000000000FF01C381C381C98
:10259000381C381FF80FF800380038007000E007CA
:1025A000C0000000000000000000000000038003E5
:1025B000800380000000000380038003800000008F
:1025C0000000000000000000000000000003800385
:1025D0008003800000000003800380038007000068
:1025E00000000000000000007000E001C003800750
:1025F000000E001C001C000E000700038001C0003C
:10260000E000700000000000000000000000003F3B
:10261000FC3FFC000000003FFC3FFC00000000000D
:10262000000000000000001C000E000700038001F5
:10263000C000E00070007000E001C0038007000EE1
:10264000001C000000000003C00FF01E78183800C6
:1026500038007000E001C001C00000000001C001AE
:10266000C001C0000000000FF81C1C1C1C1C1C1C1E
:102670001C1CFC1CFC1CFC1CFC1C001C001C001F6B
:10268000F007F800000000000003C007E00E701C17
:10269000381C381C381C381FF81C381C381C381CD7
:1026A0003800000000000000001FF00E380E380E49
:1026B000380E380FF00FF00E380E380E380E381F67
:1026C000F0000000000000000007F00E381C381C6D
:1026D000001C001C001C001C001C001C380E3807CD
:1026E000F000000000000000001FE00E700E380E29
:1026F000380E380E380E380E380E380E380E701F61
:10270000E000000000000000001FF80E180E080E88
:10271000000E300FF00FF00E300E000E080E181FD6
:10272000F800000000000000001FF80E180E080E50
:10273000000E300FF00FF00E300E000E000E001FD6
:1027400000000000000000000007F00E381C381CDC
:10275000381C001C001C001CF81C381C380E3807E4
:10276000F800000000000000001C701C701C701CB1
:10277000701C701FF01FF01C701C701C701C701CF3
:102780007000000000000000000FE00380038003E1
:102790008003800380038003800380038003800F15
:1027A000E0000000000000000001FC00700070006C
:1027B0007000700070007038703870387038700FAA
:1027C000E000000000000000001E380E380E700E01
:1027D000E00FC00F800F800FC00EE00E700E381E8D
:1027E0003800000000000000001F000E000E000E68
:1027F000000E000E000E000E000E080E180E381F00
:10280000F800000000000000001C1C1E3C1F7C1F84
:10281000FC1FFC1DDC1C9C1C1C1C1C1C1C1C1C1CF4
:102820001C00000000000000001C1C1C1C1E1C1FC3
:102830001C1F9C1DDC1CFC1C7C1C3C1C1C1C1C1C34
:102840001C000000000000000003E007F00E381C30
:102850001C1C1C1C1C1C1C1C1C1C1C0E3807F00304
:10286000E000000000000000001FF00E380E380EDF
:10287000380E380FF00FF00E000E000E000E001F85
:1028800000000000000000000003E00F780E381C7C
:102890001C1C1C1C1C1C1C1C7C1CFC0FF80FF800B6
:1028A0003800FC0000000000001FF00E380E380E4B
:1028B000380E380FF00FF00E700E380E380E381E2E
:1028C0003800000000000000000FF01C381C381C0D
:1028D000381C000FE007F000381C381C381C380F7B
:1028E000F000000000000000001FFC19CC11C40122
:1028F000C001C001C001C001C001C001C001C007CA
:10290000F000000000000000001C701C701C701C17
:10291000701C701C701C701C701C701C701C700F64
:10292000E000000000000000001C701C701C701C07
:10293000701C701C701C701C701C700EE007C003B3
:102940008000000000000000001C1C1C1C1C1C1C43
:102950001C1C1C1C9C1C9C1C9C0FF80FF80770076F
:102960007000000000000000001C701C701C700E45
:10297000E007C00380038007C00EE01C701C701CC1
:102980007000000000000000001C701C701C701C17
:10299000701C700EE007C003800380038003800F6B
:1029A000E000000000000000001FF81C381838107C
:1029B0007000E001C0038007000E081C181C381FBF
:1029C000F8000000000000000007F0070007000703
:1029D00000070007000700070007000700070007BF
:1029E000F00000000000000000100018001C000EA5
:1029F000000700038001C000E000700038001C00E8
:102A000007000000000000000007F00070007000E8
:102A1000700070007000700070007000700070072F
:102A2000F0000000000000018003C007E00E701CF1
:102A3000380000000000000000000000000000005E
:102A40000000000000000000000000000000000086
:102A50000000000000000000000000000000000076
:102A6000007FFF7FFF000000001C001C0007000724
:102A70000000000000000000000000000000000056
:102A80000000000000000000000000000000000046
:102A9000000FE0007000700FF01C701C701C700FB5
:102AA000D800000000000000001E000E000E000E06
:102AB000000FF00E380E380E380E380E380E381B58
:102AC000F000000000000000000000000000000016
:102AD000000FE01C701C701C001C001C701C700F90
:102AE000E0000000000000000000F800700070002E
:102AF000700FF01C701C701C701C701C701C700F10
:102B0000D8000000000000000000000000000000ED
:102B1000000FE01C701C701FF01C001C701C700F5C
:102B2000E0000000000000000003E00770077007ED
:102B30000007001FE01FE007000700070007001F55
:102B4000C0000000000000000000000000000000C5
:102B5000000FD81C701C701C701C700FF007F00068
:102B6000701C700FE0000000001E000E000E000E32
:102B7000000EF00F380F380E380E380E380E381E93
:102B800038000000000000000001C001C001C000CA
:102B9000000FC001C001C001C001C001C001C00FD1
:102BA000F8000000000000000000700070007000DD
:102BB0000003F00070007000700070007000701C66
:102BC000700CF007E0000000001E000E000E000E6A
:102BD000000E380E700EE00FC00EE00E700E381EA4
:102BE0003800000000000000000FC001C001C0015B
:102BF000C001C001C001C001C001C001C001C00FBF
:102C0000F8000000000000000000000000000000CC
:102C1000001FF81C9C1C9C1C9C1C9C1C9C1C9C1C31
:102C20009C00000000000000000000000000000008
:102C3000001FE01C701C701C701C701C701C701C31
:102C40007000000000000000000000000000000014
:102C5000000FE01C701C701C701C701C701C700F2E
:102C6000E000000000000000000000000000000084
:102C7000001BF00E380E380E380E380E380FF00EDE
:102C8000000E001F00000000000000000000000017
:102C9000001FB038E038E038E038E038E01FE000EE
:102CA000E000E001F0000000000000000000000073
:102CB000001EF00FF80F380E000E000E000E001F61
:102CC0000000000000000000000000000000000004
:102CD000000FE01C301C300F8003E0187018700FDC
:102CE000E0000000000000000000000100030007F9
:102CF000001FF007000700070007000770077003B8
:102D0000E0000000000000000000000000000000E3
:102D1000001C701C701C701C701C701C701C700FD0
:102D2000D8000000000000000000000000000000CB
:102D3000001C701C701C701C701C700EE007C0031F
:102D40008000000000000000000000000000000003
:102D5000001C1C1C1C1C1C1C9C1C9C0FF8077007D6
:102D600070000000000000000000000000000000F3
:102D7000001CE01CE00FC0078007800FC01CE01C97
:102D8000E000000000000000000000000000000063
:102D9000000E380E380E380E380E3807F003E000FB
:102DA000E001C01F800000000000000000000000E3
:102DB000001FE018E011C0038007000E201C601FF8
:102DC000E0000000000000000001F8038003800321
:102DD0008007001C001C00070003800380038001A3
:102DE000F800000000000001C001C001C001C001E6
:102DF000C001C001C001C001C001C001C001C001CB
:102E0000C001C00000000000001F8001C001C0011F
:102E1000C000E00038003800E001C001C001C01F60
:102E20008000000000000000001F1C3B9C39DC38C3
:102E3000F80000000000000000000000000000009A
:102E40000000000000080C205F00000000000000EF
:102E50000000000000000020202020202000200092
:102E60000000285050000000000000000000002872
:102E700028FC2850FC50500000002078A8A06030AA
:102E800028A8F02000000048A8B05028345448007A
:102E900000000020505078A8A8906C00000040402E
:102EA0008000000000000000000004081010101056
:102EB00010100804000040201010101010102040C6
:102EC0000000000020A87070A82000000000002072
:102ED0002020F8202020000000000000000000005A
:102EE00000004040800000000000F80000000000EA
:102EF000000000000000000000004000000008107A
:102F00001010202040404080000000708888888891
:102F100088887000000000206020202020207000A1
:102F200000000070888810204080F80000000070C9
:102F30008808300808887000000000103050509059
:102F400078101800000000F88080F00808887000F1
:102F5000000000709080F08888887000000000F801
:102F600090102020202020000000007088887088A9
:102F70008888700000000070888888780848700091
:102F80000000000000200000000020000000000001
:102F90000000200000002020000004081020402035
:102FA000100804000000000000F80000F800000015
:102FB00000004020100804081020400000000070AD
:102FC0008888102020002000000000708898A8A8A1
:102FD000B880780000000020203050507848CC00A5
:102FE000000000F0484870484848F00000000078B1
:102FF0008880808080887000000000F04848484841
:103000004848F000000000F8485070504048F80070
:10301000000000F8485070504040E00000000038C8
:103020004880809C88483000000000CC48487848A0
:103030004848CC00000000F8202020202020F80084
:103040000000007C10101010101090E0000000EC48
:10305000485060505048EC00000000E040404040C4
:103060004044FC00000000D8D8D8D8A8A8A8A800E0
:10307000000000DC486868585848E800000000700C
:103080008888888888887000000000F04848704070
:103090004040E0000000007088888888E898701838
:1030A000000000F0484870504848EC0000000078EC
:1030B000888060100888F000000000F8A820202018
:1030C00020207000000000CC4848484848483000A4
:1030D000000000CC4848505030202000000000A8DC
:1030E000A8A8705050505000000000D85050202028
:1030F0005050D800000000D85050202020207000F0
:10310000000000F8901020204048F800000038200F
:103110002020202020202038000040404020201087
:103120001010080000007010101010101010107017
:10313000000020500000000000000000000000001F
:103140000000000000000000FC0020000000000063
:1031500000000000000000000000304838483C003B
:10316000000000C040407048484870000000000067
:10317000000038484040380000000018080838486F
:1031800048483C000000000000003048784038000B
:103190000000001C20207820202078000000000083
:1031A00000003C4830407844380000C0404070483F
:1031B0004848EC0000000020000060202020700043
:1031C000000000100000301010101010E00000C0CF
:1031D00040405C507048EC00000000E020202020BF
:1031E0002020F800000000000000F0A8A8A8A80017
:1031F000000000000000F0484848EC00000000001B
:103200000000304848483000000000000000F0484E
:1032100048487040E000000000003848484838083E
:103220001C0000000000D8604040E00000000000EA
:103230000000784030087800000000002020702056
:1032400020201800000000000000D84848483C003A
:10325000000000000000EC4850302000000000009A
:103260000000A8A870505000000000000000D850D6
:103270002050D800000000000000EC485030202012
:10328000C000000000007810202078000000181016
:103290001010201010101018001010101010101026
:1032A000101010101000602020201020202020601E
:1032B0000040A418000000000000000000001124DD
:1032C0001FBECFEFDAE0DEBFCDBF11E0A0E0B1E07E
:1032D000E2EBFDE402C005900D92AC30B107D9F7E6
:1032E00021E0ACE0B1E001C01D92A432B207E1F7E9
:1032F0000E94EA210C94D7260C9400008FEF84B929
:103300008AB980B3816F80BB08958BB965B98D98F8
:103310008D9A08958C98682F80E0F7CF8C9AF5CF1E
:103320008C9A682F80E0F1CFCF93DF9300D0CDB798
:10333000DEB769837A83EEDF69817A81872F0F9008
:103340000F90DF91CF91EACF8FE091E0909323012E
:10335000809322018FED91E090930F0180930E01F5
:1033600080E180931401CACF887F962F929596951D
:103370009770892B80930C016C7188E0689FB00175
:103380001124469546954695642B60930D0108954A
:10339000887F962F929596959770892B80931E0122
:1033A0006C7188E0689FB00111244695469546955A
:1033B000642B6093170110921F010895EF92FF9202
:1033C0000F931F93CF93DF9300D000D0CDB7DEB71C
:1033D0008C017A0180911201813069F440910E01D3
:1033E00050910F01CA01801B910B4E195F097901A1
:1033F0009C018B01BA018AE22C833B836A83798327
:1034000089DF7981872F8CDF6A81862F89DF3B8175
:10341000832F86DF2C81822F83DF8BE27BDF812F5E
:103420007FDF802F7DDF8F2D7BDF8E2D79DF8CE29C
:103430000F900F900F900F90DF91CF911F910F91F0
:10344000FF90EF9067CF109216018E9A889A8FE1C5
:103450009EE40197F1F700C0000088988FE59AEE8E
:103460000197F1F700C00000889A8FE59AEE019766
:10347000F1F700C000008F9882EE4CDF83E250DF4E
:1034800082E04EDF84E54CDF80EE44DF81E048DF00
:103490008FE39CE90197F1F700C0000080EE3ADF6E
:1034A00083E03EDF8FE39CE90197F1F700C0000065
:1034B00081E030DF9FEF21EE84E09150204080409A
:1034C000E1F700C0000086EE25DF81E029DF8FE113
:1034D00027DF8FEF25DF80EB1DDF80E221DF80E03B
:1034E0001FDF81E01DDF8FED1BDF81E019DF8FE043
:1034F00017DF80E015DF84EB0DDF82E011DF83E171
:103500000FDF80E00DDF88E00BDF8BE209DF80E07A
:1035100007DF82E005DF80E003DF86EBFBDE81E092
:10352000FFDE80E2FDDE80E0FBDE84E0F9DE8CE0A1
:10353000F7DE80E0F5DE82E0F3DE8AEBEBDE8FE0A3
:10354000EFDE88EBE7DE87E0EBDE81E0E9DE86E3B5
:10355000E1DE82E2E5DE80EFDDDE83E0E1DE8FE9C1
:103560009FE00197F1F700C000002FE031E04FED40
:1035700051E060E070E080E090E020DF89E2CADEA8
:103580008EEBC8DE86E0CCDE80EFCADE81E0C8DEEE
:1035900080EFC6DE80E0C4DE80E0C2DE80EDBADE11
:1035A0008DE0BEDE8CE2B6DE8F9A8FEF80930C0149
:1035B00080930D0110921E011092170110921F01AD
:1035C00010921901109218011092210110922001FD
:1035D0001092110110921001089520911201809112
:1035E0000E0190910F014091220150912301211170
:1035F00002C09C0102C09A01AC0160E070E080E072
:1036000090E0DCCECF92DF92EF92FF928BB965B95A
:1036100069017A0184E0F694E794D794C7948A9577
:10362000D1F780E090E0DC018C159D05AE05BF056B
:1036300021F18D988D9A8D988D9A8D988D9A8D986F
:103640008D9A8D988D9A8D988D9A8D988D9A8D984A
:103650008D9A8D988D9A8D988D9A8D988D9A8D983A
:103660008D9A8D988D9A8D988D9A8D988D9A8D982A
:103670008D9A0196A11DB11DD7CFBA01A9014F7036
:10368000552766277727411551056105710591F08A
:1036900080E090E0DC014F5F5F4F6F4F7F4F8417FA
:1036A0009507A607B70730F48D988D9A0196A11D4E
:1036B000B11DF5CFFF90EF90DF90CF9008958F98D8
:1036C0008CDF8C9AA0912201B09123011196209158
:1036D0000E0130910F012F5F3F4F0E942C249B0160
:1036E000AC0160E080E08EDF8F9A0895CF93DF9386
:1036F000D82FC92F8F9871DF8C9AA0912201B09199
:103700002301119620910E0130910F012F5F3F4F41
:103710000E942C249B01AC016D2F8C2F73DF8F9A9C
:10372000DF91CF9108956C7F28E0629FB001112452
:10373000469546954695642B887F9B01382BC90199
:10374000D5CF682F892FEACD8F989B01AC0136DE4B
:1037500080910C0190E0982F882720910D01822BF9
:10376000F0DF8F9A3ACFCF93DF93EA018F989B01D6
:10377000AC0124DECE01E5DF8F9ADF91CF912DCF12
:1037800090930C0180930D010895CF93DF93EA018C
:103790008F98AC014C0F5D1F9B0110DE8C9A9E012F
:1037A00040E050E060910D0180910C012BDF8F9A79
:1037B000DF91CF9112CFCF93DF93EA018F989B01D6
:1037C000240F351FAC01FADD8C9A9E0140E050E0D9
:1037D00060910D0180910C0115DF8F9ADF91CF91DF
:1037E000FCCEAF92BF92CF92DF92EF92FF920F93F7
:1037F0001F93CF93DF938C01EB017A01690162176C
:10380000730721F4481B590BC0DF50C0841795077C
:1038100029F4A901461B570BCEDF48C08417950732
:1038200020F4481B590B91E004C0AC014E195F090C
:103830009FEFCC15DD0528F496012C1B3D0B81E094
:1038400004C09E012C193D098FEF8F984217530732
:1038500028F0A92EB12CC82ED12C16C0E82EF12CA0
:10386000A92EB12C9E01A801BE01C801A7DD60915F
:103870000D0180910C0152DDCC15DD0511F1CE0D4D
:10388000DF1D0A0D1B1DEECF9E01A801BE01C80160
:1038900095DD60910D0180910C0140DD0E151F0535
:1038A00081F00A0D1B1DCC0DDD1DEECFDF91CF91F8
:1038B0001F910F91FF90EF90DF90CF90BF90AF904E
:1038C0008CCEDF91CF911F910F91FF90EF90DF9001
:1038D000CF90BF90AF9008959093210180932001E5
:1038E000709311016093100108956F927F928F92EF
:1038F0009F92AF92BF92CF92DF92EF92FF920F937F
:103900001F93CF93DF938F9820911F0130911B015C
:1039100090911A01C82FD0E02111F5C080911201B9
:1039200081116DC06091100170911101E091200131
:10393000F0912101AB0141505109DA01A30FB11DF2
:103940009D01AF0141505109490F511DCF0136DD95
:1039500020911A0126952695269580911B0190911C
:103960001C01C91BD109289F90011124C29F80010D
:10397000C39F100DD29F100D11240C5F1F4FE12C1F
:10398000F12C80911A0186958695869590911B0160
:10399000899FC0011124E816F90608F02CC1E091B6
:1039A0001801F0911901E00FF11FE491F7E0CF2E1B
:1039B000D12CCE2FD0E0CE010C2C02C0959587954E
:1039C0000A94E2F780FF08C080910C0190E0982FE4
:1039D000882720910D0107C080911E0190E0982F4B
:1039E000882720911701822BACDEB1E0CB1AD108D9
:1039F00010F70F5F1F4F3FEFE31AF30AC2CF969500
:103A00009695969580911C01C81BD109939F9001B2
:103A10001124C29FA001C39F500DD29F500D1124AD
:103A2000EA01249600E010E0F0901A016F2D6695EF
:103A30006695669580911B01689FC0011124081747
:103A4000190708F0D8C0E0912001F091210170E041
:103A5000C801B9D62091100130911101620F731F76
:103A6000AF01415051094F0D511D9B01CF01A6DC03
:103A7000C0901A01C694C694C694D12C7E0181E0F0
:103A8000E81AF108C114D10499F1E0911801F091FC
:103A9000190197012C0D3D1DE20FF31FE491812CBC
:103AA000912CAE2EB12CC501082C02C0959587959E
:103AB0000A94E2F780FF08C080910C0190E0982FF3
:103AC000882720910D0107C080911E0190E0982F5A
:103AD000882720911701822B34DEAFEF8A1A9A0AC9
:103AE000B8E08B169104F9F621E0C21AD108CACFCA
:103AF00020911A0126952695269530E0C20FD31FF6
:103B0000020F131F91CF96959695969580911C0163
:103B1000C81BD109939F90011124C29F8001C39FAC
:103B2000100DD29F100D11240C5F1F4FC12CD12CF2
:103B300037E0632E712C80911B0190E0C816D906E6
:103B400008F059C0812C912CA12CB12C80911A0124
:103B500086958695869590E0A816B9060CF045C026
:103B6000E0911801F0911901C501800F911FE80F34
:103B7000F91FE491E12CF12CCE2FD0E060911001DF
:103B8000709111016C0D7D1D80912001909121019A
:103B9000880D991D8E0D9F1D9B012F5F3F4FAC011E
:103BA0004F5F5F4F0BDCC3018E199F09DE0102C01E
:103BB000B595A7958A95E2F7A0FF09C080910C0101
:103BC00090E0982F882720910D01822BBADDBFEF5E
:103BD000EB1AFB0A28E0E216F10481F63FEFA31A84
:103BE000B30A88E0880E911CB1CF080F191FAFEF00
:103BF000CA1ADA0AA0CF8F9AF0DC20911A018091BC
:103C0000200190912101820F911D909321018093B9
:103C1000200180E090E0DF91CF911F910F91FF9004
:103C2000EF90DF90CF90BF90AF909F908F907F905C
:103C30006F9008952F923F924F925F926F927F9272
:103C40008F929F92AF92BF92CF92DF92EF92FF92AC
:103C50000F931F93CF93DF9300D000D0CDB7DEB783
:103C60008B015C834B838F9890911F0120911B01E6
:103C700040911A01E82EF12C9111FFC080911201A0
:103C800081117DC030E0215031098B819C81280F4A
:103C9000391F50E041505109460F571FBC01C80160
:103CA0008DDB20911A0126952695269580911B0182
:103CB00090911C01E91AF108289F90011124E29EBD
:103CC0008001E39E100DF29E100D11240C5F1F4F1A
:103CD000E12CF12C80911A0186958695869590911C
:103CE0001B01899FC0011124E816F90680F5E091B7
:103CF0001801F0911901E00FF11FE49177E0C72E50
:103D0000D12CAE2EB12CC5010C2C02C095958795F7
:103D10000A94E2F780FF08C080910C0190E0982F90
:103D2000882720910D0107C080911E0190E0982FF7
:103D3000882720911701822B04DD91E0C91AD10850
:103D400010F70F5F1F4FBFEFEB1AFB0AC3CF8F9A1D
:103D50000F900F900F900F90DF91CF911F910F91C7
:103D6000FF90EF90DF90CF90BF90AF909F908F909B
:103D70007F906F905F904F903F902F902ECC469504
:103D80004695469580911C01E81AF108429F9001E2
:103D90001124E29E5001E39EB00CF29EB00C11245F
:103DA000E4E0AE0EB11C812C912C40911A01642FDD
:103DB00066956695669580911B01689FC0011124E8
:103DC0008816990620F670E0C401FDD42B813C8151
:103DD000620F731F50E041505109400F511F9B016A
:103DE000C801ECDAC0901A01C694C694C694D12CCE
:103DF000250131E0431A5108C114D10499F1E09131
:103E00001801F0911901C2018C0D9D1DE80FF91FD9
:103E1000E491612C712CEE2EF12CC701062C02C00E
:103E2000959587950A94E2F780FF08C080910C0170
:103E300090E0982F882720910D0107C080911E01E6
:103E400090E0982F882720911701822B7ADC4FEF82
:103E5000641A740A58E065167104F9F681E0C81A0C
:103E6000D108CACF80911A0186958695869590E0F3
:103E7000A80EB91E880E991E98CF46954695469570
:103E800080911C01E81AF108429F90011124E29EE2
:103E90003001E39E700CF29E700C112494E0690EC8
:103EA000711CEB80FC8080911B0190E09701AB813D
:103EB000BC812A1B3B0B2817390708F048CF480163
:103EC000C12CD12CC70101961C0180911A01869545
:103ED0008695869590E0C816D9060CF03EC0E09114
:103EE0001801F0911901C601860D971DE80FF91F01
:103EF000E491C401A12CB12CAE2FB0E0BA83A98308
:103F00002C01BFEF4B1A5B0A9101A201B70156DAEF
:103F100087E090E08A199B09E981FA8102C0F59552
:103F2000E7958A95E2F7E0FF09C080910C0190E0E7
:103F3000982F882720910D01822B03DCFFEFAF1A09
:103F4000BF0AC20128E0A216B104D1F63FEFC31A9E
:103F5000D30A48E0840E911CB8CF680E791E710117
:103F6000A2CFA8E1B1E011969C938E93FC0124911D
:103F700012962C9312973196E4911396EC93139723
:103F8000FC013296E4911496EC931497FC0133965D
:103F9000849115968C930895AF92BF92CF92DF9241
:103FA000EF92FF920F931F93CF93DF93EB018A0160
:103FB000FC0101900020E9F731977F01E81AF90A26
:103FC0002091120121111AC06F30774271F4C09113
:103FD0002201D0912301219640911A014E9D90011A
:103FE0004F9D300D1124C21BD30BCE30E7E2DE070C
:103FF00051F5C0912201D091230119C06F30774251
:1040000071F4C0910E01D0910F01219640911A01D7
:104010004E9D90014F9D300D1124C21BD30BCE300D
:1040200027E2D20781F4C0910E01D0910F012196B1
:1040300040911A014E9D90014F9D300D1124C21BDD
:10404000D30BD695C7955C01C12CD12CCE14DF04BF
:10405000C1F080911A018C9DB0018D9D700D1124CD
:104060006C0F7D1FA801F50181915F01E3DD8FE9F0
:104070009FE00197F1F700C000009FEFC91AD90A2D
:10408000E5CFDF91CF911F910F91FF90EF90DF90DF
:10409000CF90BF90AF9008958F929F92AF92BF92B2
:1040A000CF92DF92EF92FF920F931F93CF93DF9304
:1040B0004B015C01EA01690183D18C0180911201FD
:1040C00081111BC0CF3087E2D80771F4C091220163
:1040D000D0912301219620911A01209FC001219F98
:1040E000900D1124C81BD90BCE3097E2D90759F592
:1040F000C0912201D09123011AC0CF3087E2D807A6
:1041000071F4C0910E01D0910F01219620911A01F6
:10411000209FC001219F900D1124C81BD90BCE30C8
:1041200097E2D90781F4C0910E01D0910F01219639
:1041300020911A01209FC001219F900D1124C81BBE
:10414000D90BD695C795E12CF12CE016F106C9F0F4
:10415000F701E80DF91D849190911A019E9DB0011F
:104160009F9D700D11246C0F7D1FA60163DD8FE9EB
:104170009FE00197F1F700C000009FEFE91AF90AEC
:10418000E4CFDF91CF911F910F91FF90EF90DF90DF
:10419000CF90BF90AF909F908F900895809116011F
:1041A000811102C081E201C080E28F98B3D88F9A5A
:1041B000809116018095809316010895EF92FF92E9
:1041C0000F931F93CF93DF937C018B01C0E1D1E06C
:1041D000C81BD90BC61BD70B8F9883E39BD88F2D99
:1041E0009FD88E2D9DD8812F9BD8802F99D88D2F29
:1041F00097D88C2F95D88F9ADF91CF911F910F91DF
:10420000FF90EF9008951F93CF93DF931F92CDB748
:10421000DEB7182F8F9887E399837CD89981892FEF
:104220007FD8812F7DD88F9A0F90DF91CF911F91EA
:1042300008952F923F924F925F926F927F928F924A
:104240009F92AF92BF92CF92DF92EF92FF920F9325
:104250001F93CF93DF93CDB7DEB7E9970FB6F894EE
:10426000DEBF0FBECDBF4B015C015FAB4EAB39AFC4
:1042700028AFEDAA672B682B692BF9F401151105FE
:10428000C1F0CE010196FC01015011099F01281BCC
:10429000390B2017310718F42DA92193F7CFFC0112
:1042A000E00FF11F20E32083FE01E00FF11F1282D7
:1042B00067C080E389831A8263C03E013CE1630EDC
:1042C000711CE12CF12C8AE0282E312C412C512C30
:1042D000C501B401A20191019DD220E3260FF30193
:1042E00021933F016701FFEFCF1ADF0AA501940177
:1042F000261B370B480B590BCA01B901A2019101CA
:1043000089D249015A01232B242B252B11F0760148
:10431000DFCFECE1F0E0EC0FFD1FEC0DFD1D108296
:104320009E012F5F3F4FC016D10660F4F9010C19B2
:104330001D09CF01821B930B8017910728F44DA90B
:104340004193F7CF00E010E080E090E0FC01E00F47
:10435000F11FE20FF31FD701A81BB90B4CE150E08E
:104360004C0F5D1FA40FB51F4C91408301968C1517
:104370009D0561F7020F131FF801E80FF91F108266
:1043800048AD59AD6EA97FA9CE01019605DEE9962B
:104390000FB6F894DEBF0FBECDBFDF91CF911F9156
:1043A0000F91FF90EF90DF90CF90BF90AF909F90D4
:1043B0008F907F906F905F904F903F902F900895D7
:1043C000FB0105900020E9F7609570956E0F7F1F47
:1043D000CB010895CF93DF93CDB7DEB7CC5BD3404D
:1043E0000FB6F894DEBF0FBECDBF6E9A769A2FEF50
:1043F00083EC99E0215080409040E1F700C000003C
:1044000076982FEF83EC99E0215080409040E1F7BF
:1044100000C00000769A2FEF83EC99E02150804095
:104420009040E1F700C00000769881E0809312018F
:104430000E94A4198091120106D840E060E080E05B
:104440000E94B4194FEF6FEF8FEF0E94C81985E4F7
:104450009EE287DD34D94FEF60E080E00E94B4191E
:1044600040E060E080E00E94C8192FEF30E04FEE9E
:1044700050E06FE070E08FEE90E0B3D927E830E0D5
:104480004EED51E067E870E081E090E0AAD909E0E4
:1044900010E02AE830E0A80165E870E0C801A1D981
:1044A000065F1F4F0F3D21E0120799F70FE010E064
:1044B000980141EF50E0B8018DEE90E092D9065F8F
:1044C0001F4F093081E0180799F74FEF6FEF80E039
:1044D0000E94B4194FE050E065E070E080E091E0A8
:1044E0005BDD01E010E0B801012E000C880B990B98
:1044F000C5D227ED33EA40E95FE385D323EC35EFFE
:1045000048E450E480D320E030E044E353E41BD29D
:10451000DDD320E030E04EEB52E475D320E030E014
:1045200047E053E4A9D17CD2C8010ED90F5F1F4FD9
:104530000E3D91E01907B9F640E060E08FEF0E9470
:10454000B4194BE150E065E070E084E091E024DDD7
:1045500001E010E0B801012E000C880B990B8ED2FF
:1045600027ED33EA40E95FE34ED323EC35EF48E42F
:1045700050E449D320E030E044E353E4E4D1E0D117
:1045800020E030E04EEB52E43ED320E030E047E064
:1045900053E472D145D2C801D7D80F5F1F4F0E3DEB
:1045A00021E01207B9F640E06FEF8FEF0E94B419D7
:1045B00047E250E065E070E088E091E0EDDC01E08A
:1045C00010E0B801012E000C880B990B57D227ED93
:1045D00033EA40E95FE317D323EC35EF48E450E4D6
:1045E00012D320E030E044E353E4ADD175D320E0B2
:1045F00030E047E053E440D113D2C801A5D80F5FA3
:104600001F4F0E3D81E01807E1F69FEF27EA81E694
:10461000915020408040E1F700C0000050D84FEF9B
:1046200060E080E00E94B41940E060E080E00E9419
:10463000C8192FEF30E04FEE50E06FE070E08FEEE2
:1046400090E0CFD827E830E04EED51E067E870E029
:1046500081E090E0C6D809E010E02AE830E0A80147
:1046600065E870E0C801BDD8065F1F4F0F3D91E0BF
:10467000190799F70FE010E0980141EF50E0B801F9
:104680008DEE90E0AED8065F1F4F093021E0120793
:1046900099F7EE24E394F12C01E010E04CE9C42EEC
:1046A000DD24DA940F5F1F4F0F3D81E0180749F0BA
:1046B00090EEE91691E0F9067CF10F3E110541F408
:1046C00016C001E010E080EEE81681E0F80624F163
:1046D000F8013197EE0FFF1F81E090E08C0F9D1FD6
:1046E000E80FF91F808191818738910511F44FEF10
:1046F00001C040E060E080E00E94B419F801319709
:10470000EE0FFF1F81E090E08C0F9D1FE80FF91F57
:1047100060817181C80118D840E060E08FEF0E948D
:10472000B419B7010F2C000C880B990BA7D123E308
:1047300033E343ED5FE367D223EC35EF48E450E425
:1047400062D220E030E044E353E4FDD0BFD24B011D
:104750005C01C701B6014BD0CB01865A9F4FBC010B
:10476000990F880B990B8AD19B01AC01C501B4014B
:104770004AD220E030E047E053E47ED04CD14B01F8
:104780005C01C8010E94A41BF8013197EE0FFF1FC6
:1047900081E090E08C0F9D1FE80FF91F91828082CD
:1047A0009FEFE91AF90A28E5E21625E2F20609F078
:1047B00079CF8FEF97EA21E6815090402040E1F7D2
:1047C00000C00000FFCFAA1BBB1B51E107C0AA1FFE
:1047D000BB1FA617B70710F0A61BB70B881F991FA2
:1047E0005A95A9F780959095BC01CD01089597FB46
:1047F000072E16F4009406D077FD08D0E4DF07FCFE
:1048000005D03EF4909581959F4F089570956195E0
:104810007F4F0895A1E21A2EAA1BBB1BFD010DC0FC
:10482000AA1FBB1FEE1FFF1FA217B307E407F50760
:1048300020F0A21BB30BE40BF50B661F771F881F3C
:10484000991F1A9469F760957095809590959B01D2
:10485000AC01BD01CF010895A29FB001B39FC0017B
:10486000A39F700D811D1124911DB29F700D811D9C
:104870001124911D08955058BB27AA270ED078C146
:1048800041D130F046D120F031F49F3F11F41EF4B5
:1048900036C10EF4E095E7FB2CC1E92F8BD180F3F4
:1048A000BA17620773078407950718F071F49EF52D
:1048B000A3C10EF4E0950B2EBA2FA02D0B01B90168
:1048C00090010C01CA01A0011124FF27591B99F086
:1048D000593F50F4503E68F11A16F040A22F232F92
:1048E000342F4427585FF3CF469537952795A795E2
:1048F000F0405395C9F77EF41F16BA0B620B730B89
:10490000840BBAF09150A1F0FF0FBB1F661F771FF9
:10491000881FC2F70EC0BA0F621F731F841F48F4AE
:10492000879577956795B795F7959E3F08F0B3CF34
:104930009395880F08F09927EE0F9795879508951E
:10494000F0D0E39526C10CD013C1E3D040F0DAD00B
:1049500030F021F45F3F19F0CCC051114EC1CFC0EF
:1049600029D198F39923C9F35523B1F3951B550B1E
:10497000BB27AA2762177307840738F09F5F5F4F32
:10498000220F331F441FAA1FA9F333D00E2E3AF073
:10499000E0E830D091505040E695001CCAF729D08D
:1049A000FE2F27D0660F771F881FBB1F26173707DC
:1049B0004807AB07B0E809F0BB0B802DBF01FF270C
:1049C00093585F4F2AF09E3F510568F092C015C181
:1049D0005F3FECF3983EDCF3869577956795B79546
:1049E000F7959F5FC9F7880F911D9695879597F961
:1049F0000895E1E0660F771F881FBB1F62177307DA
:104A00008407BA0720F0621B730B840BBA0BEE1FEE
:104A100088F7E095089504D06894B111EEC0089528
:104A2000D1D088F09F5790F0B92F9927B751A0F0B7
:104A3000D1F0660F771F881F991F1AF0BA95C9F732
:104A400012C0B13081F0D8D0B1E00895D5C0672F41
:104A5000782F8827B85F39F0B93FCCF386957795E2
:104A60006795B395D9F73EF49095809570956195CB
:104A70007F4F8F4F9F4F0895E89409C097FB3EF4F6
:104A800090958095709561957F4F8F4F9F4F99239B
:104A9000A9F0F92F96E9BB279395F6958795779519
:104AA0006795B795F111F8CFFAF4BB0F11F460FFD9
:104AB0001BC06F5F7F4F8F4F9F4F16C0882311F031
:104AC00096E911C0772321F09EE8872F762F05C045
:104AD000662371F096E8862F70E060E02AF09A95E0
:104AE000660F771F881FDAF7880F9695879597F9D5
:104AF000089597F99F6780E870E060E008959FEF60
:104B000080EC089500240A94161617061806090664
:104B1000089500240A941216130614060506089533
:104B2000EECF50D0E8F3E894E0E0BB279F57F0F0D9
:104B30002AED3FE049EC06C0EE0FBB0F661F771F62
:104B4000881F28F0B23A62077307840728F0B25A28
:104B5000620B730B840BE3959A9572F7803830F4EF
:104B60009A95BB0F661F771F881FD2F79048D6C053
:104B7000092E0394000C11F4882352F0BB0F40F46B
:104B8000BF2B11F460FF04C06F5F7F4F8F4F9F4FAB
:104B90000895EF93E0FF06C0A2EA2AED3FE049EC5A
:104BA0005FEB7BDEE5DF0F90039401FC9058ECEAAD
:104BB000F0E0C0C057FD9058440F551F59F05F3FBB
:104BC00071F04795880F97FB991F61F09F3F79F02F
:104BD00087950895121613061406551FF2CF4695B1
:104BE000F1DF08C0161617061806991FF1CF869533
:104BF0007105610508940895E894BB276627772717
:104C0000CB0197F908950BD0B3CF7CDF28F081DF7B
:104C100018F0952309F06DCF72CF1124EECFCADFC3
:104C2000A0F3959FD1F3950F50E0551F629FF001BF
:104C3000729FBB27F00DB11D639FAA27F00DB11D18
:104C4000AA1F649F6627B00DA11D661F829F2227A1
:104C5000B00DA11D621F739FB00DA11D621F839F28
:104C6000A00D611D221F749F3327A00D611D231FFE
:104C7000849F600D211D822F762F6A2F11249F574C
:104C800050408AF0E1F088234AF0EE0FFF1FBB1F6F
:104C9000661F771F881F91505040A9F79E3F51050E
:104CA00070F027CFAACF5F3FECF3983EDCF38695F8
:104CB00077956795B795F795E7959F5FC1F7FE2BB9
:104CC000880F911D9695879597F908959F9329DFF1
:104CD0000F9007FCEE5F5DCFDF93D92F22DFE695C3
:104CE000D7952AED3FE049E45FE3B33A62077307E3
:104CF00084079507D7952AF0A2EA49EC9068CDDDA4
:104D000037DFEAECF0E016D0DD0F0BF024D0DD0F3A
:104D10000BF49058DF9108959F3F31F0915020F4AB
:104D2000879577956795B795880F911D9695879587
:104D300097F908959F938F937F936F93FF93EF93CA
:104D40009B01AC0160DFEF91FF910CD02F913F915F
:104D50004F915F9158CF9B01AC0160E070E080E81B
:104D60009FE3F1CDDF93CF931F930F93FF92EF92C9
:104D7000DF927B018C01689405C0DA2EEF014FDFD2
:104D8000FE01E894A5912591359145915591AEF399
:104D9000EF0183DDFE019701A801DA9479F7DF9036
:104DA000EF90FF900F911F91CF91DF910895F894AC
:024DB000FFCF33
:0C4DB20053696E00436F730054616E0083
:00000001FF
