:1000000055C0000070C000006EC000006CC0000051
:100010006AC0000068C0000066C0000064C0000044
:1000200062C0000060C000005EC000005CC0000054
:100030005AC0000058C0000056C0000054C0000064
:1000400052C0000050C000004EC000004CC0000074
:100050004AC0000048C0000046C0000044C0000084
:1000600042C0000040C000003EC000003CC0000094
:100070003AC0000038C0000036C0000034C00000A4
:1000800032C0000030C000002EC000002CC00000B4
:100090002AC0000028C0000026C0000024C00000C4
:1000A00022C0000020C000001EC0000011241FBE9E
:1000B000CFEFDAE0DEBFCDBF11E0A0E0B1E0E4E0D9
:1000C000F3E102C005900D92A032B107D9F721E00B
:1000D000A0E2B1E001C01D92A833B207E1F70E948F
:1000E000DD080C9480098CCF8FEF84B98AB980B376
:1000F000816B80BB08958BB965B98D988D9A0895F1
:100100008C98682F80E0F7CF8C9AF5CF8C9A682F67
:1001100080E0F1CFCF93DF9300D0CDB7DEB7698316
:100120007A83EEDF69817A81872F0F900F90DF91BC
:10013000CF91EACF8FE091E0909337018093360121
:100140008FED91E0909323018093220180E18093D1
:100150002801CACF887F962F929596959770892B04
:10016000809320016C7188E0689FB001112446954E
:1001700046954695642B609321010895887F962FBC
:10018000929596959770892B809332016C7188E0D7
:10019000689FB0011124469546954695642B60935F
:1001A0002B01109233010895EF92FF920F931F934A
:1001B000CF93DF9300D000D0CDB7DEB78C017A01AA
:1001C00080912601813069F44091220150912301F0
:1001D000CA01801B910B4E195F0979019C018B01AB
:1001E000BA018AE22C833B836A83798389DF798130
:1001F000872F8CDF6A81862F89DF3B81832F86DF03
:100200002C81822F83DF8BE27BDF812F7FDF802FAA
:100210007DDF8F2D7BDF8E2D79DF8CE20F900F90AD
:100220000F900F90DF91CF911F910F91FF90EF9062
:1002300067CF10922A01889A8FE19EE40197F1F727
:1002400000C0000088988FE59AEE0197F1F700C092
:100250000000889A8FE59AEE0197F1F700C0000040
:100260008F9882EE4DDF83E251DF82E04FDF84E53D
:100270004DDF80EE45DF81E049DF8FE39CE90197A8
:10028000F1F700C0000080EE3BDF83E03FDF8FE34B
:100290009CE90197F1F700C0000081E031DF9FEF9A
:1002A00021EE84E0915020408040E1F700C0000042
:1002B00086EE26DF81E02ADF8FE128DF8FEF26DF61
:1002C00080EB1EDF80E222DF80E020DF81E01EDFA6
:1002D0008FED1CDF81E01ADF8FE018DF80E016DF92
:1002E00084EB0EDF82E012DF83E110DF80E00EDFBF
:1002F00088E00CDF8BE20ADF80E008DF82E006DFC7
:1003000080E004DF86EBFCDE81E000DF80E2FEDEE1
:1003100080E0FCDE84E0FADE8CE0F8DE80E0F6DEF1
:1003200082E0F4DE8AEBECDE8FE0F0DE88EBE8DEE4
:1003300087E0ECDE81E0EADE86E3E2DE82E2E6DE12
:1003400080EFDEDE83E0E2DE8FE99FE00197F1F7E8
:1003500000C000002FE031E04FED51E060E070E0C0
:1003600080E090E021DF89E2CBDE8EEBC9DE86E023
:10037000CDDE80EFCBDE81E0C9DE80EFC7DE80E03E
:10038000C5DE80E0C3DE80EDBBDE8DE0BFDE8CE24B
:10039000B7DE8F9A8FEF8093200180932101109216
:1003A000320110922B011092330110922D01109204
:1003B0002C011092350110923401109225011092F7
:1003C000240108952091260180912201909123011A
:1003D0004091360150913701211102C09C0102C0A9
:1003E0009A01AC0160E070E080E090E0DDCECF9259
:1003F000DF92EF92FF928BB965B969017A0184E0CF
:10040000F694E794D794C7948A95D1F780E090E06A
:10041000DC018C159D05AE05BF0521F18D988D9AE7
:100420008D988D9A8D988D9A8D988D9A8D988D9A9C
:100430008D988D9A8D988D9A8D988D9A8D988D9A8C
:100440008D988D9A8D988D9A8D988D9A8D988D9A7C
:100450008D988D9A8D988D9A8D988D9A0196A11D63
:10046000B11DD7CFBA01A9014F705527662777274D
:10047000411551056105710591F080E090E0DC01C6
:100480004F5F5F4F6F4F7F4F84179507A607B707E2
:1004900030F48D988D9A0196A11DB11DF5CFFF9076
:1004A000EF90DF90CF9008958F988CDF8C9AA09179
:1004B0003601B0913701119620912201309123012C
:1004C0002F5F3F4F0ED79B01AC0160E080E08FDFD4
:1004D0008F9A0895CF93DF93D82FC92F8F9872DF0B
:1004E0008C9AA0913601B09137011196209122018A
:1004F000309123012F5F3F4FF4D69B01AC016D2F4C
:100500008C2F75DF8F9ADF91CF9108956C7F28E053
:10051000629FB0011124469546954695642B887FCD
:100520009B01382BC901D6CF682F892FEDCD8F982D
:100530009B01AC0139DE8091200190E0982F882743
:1005400020912101822BF0DF8F9A3CCFCF93DF9354
:10055000EA018F989B01AC0127DECE01E5DF8F9A7F
:10056000DF91CF912FCF90932001809321010895A7
:10057000CF93DF93EA018F98AC014C0F5D1F9B0175
:1005800013DE8C9A9E0140E050E060912101809141
:1005900020012DDF8F9ADF91CF9114CFCF93DF937E
:1005A000EA018F989B01240F351FAC01FDDD8C9A69
:1005B0009E0140E050E0609121018091200117DF11
:1005C0008F9ADF91CF91FECEAF92BF92CF92DF9202
:1005D000EF92FF920F931F93CF93DF938C01EB0168
:1005E0007A0169016217730721F4481B590BC0DFB8
:1005F00050C08417950729F4A901461B570BCEDF7D
:1006000048C08417950720F4481B590B91E004C09B
:10061000AC014E195F099FEFCC15DD0528F496015A
:100620002C1B3D0B81E004C09E012C193D098FEF6E
:100630008F984217530728F0A92EB12CC82ED12C21
:1006400016C0E82EF12CA92EB12C9E01A801BE01E6
:10065000C801AADD609121018091200155DDCC15F2
:10066000DD0511F1CE0DDF1D0A0D1B1DEECF9E0124
:10067000A801BE01C80198DD60912101809120018F
:1006800043DD0E151F0581F00A0D1B1DCC0DDD1D70
:10069000EECFDF91CF911F910F91FF90EF90DF9000
:1006A000CF90BF90AF908ECEDF91CF911F910F91E1
:1006B000FF90EF90DF90CF90BF90AF900895909310
:1006C00035018093340170932501609324010895CE
:1006D0006F927F928F929F92AF92BF92CF92DF9252
:1006E000EF92FF920F931F93CF93DF938F982091F8
:1006F000330130912F0190912E01C82FD0E02111AC
:10070000F5C08091260181116DC060912401709126
:100710002501E0913401F0913501AB0141505109BF
:10072000DA01A30FB11D9D01AF0141505109490FDD
:10073000511DCF0139DD20912E0126952695269554
:1007400080912F0190913001C91BD109289F900100
:100750001124C29F8001C39F100DD29F100D112440
:100760000C5F1F4FE12CF12C80912E018695869510
:10077000869590912F01899FC0011124E816F906F2
:1007800008F02CC1E0912C01F0912D01E00FF11F38
:10079000E491F7E0CF2ED12CCE2FD0E0CE010C2C5F
:1007A00002C0959587950A94E2F780FF08C0809172
:1007B000200190E0982F88272091210107C0809187
:1007C000320190E0982F882720912B01822BACDEFC
:1007D000B1E0CB1AD10810F70F5F1F4F3FEFE31ABC
:1007E000F30AC2CF96959695969580913001C81BD5
:1007F000D109939F90011124C29FA001C39F500D66
:10080000D29F500D1124EA01249600E010E0F090F0
:100810002E016F2D66956695669580912F01689FD4
:10082000C00111240817190708F0D8C0E09134015D
:10083000F091350170E0C8011ED52091240130915E
:100840002501620F731FAF01415051094F0D511D1A
:100850009B01CF01A9DCC0902E01C694C694C6941A
:10086000D12C7E0181E0E81AF108C114D10499F17C
:10087000E0912C01F0912D0197012C0D3D1DE20F0F
:10088000F31FE491812C912CAE2EB12CC501082CC4
:1008900002C0959587950A94E2F780FF08C0809181
:1008A000200190E0982F88272091210107C0809196
:1008B000320190E0982F882720912B01822B34DE83
:1008C000AFEF8A1A9A0AB8E08B169104F9F621E084
:1008D000C21AD108CACF20912E01269526952695B9
:1008E00030E0C20FD31F020F131F91CF969596953C
:1008F000969580913001C81BD109939F90011124D6
:10090000C29F8001C39F100DD29F100D11240C5F58
:100910001F4FC12CD12C37E0632E712C80912F01F9
:1009200090E0C816D90608F059C0812C912CA12C52
:10093000B12C80912E0186958695869590E0A8161B
:10094000B9060CF045C0E0912C01F0912D01C501D4
:10095000800F911FE80FF91FE491E12CF12CCE2FAD
:10096000D0E060912401709125016C0D7D1D809176
:10097000340190913501880D991D8E0D9F1D9B01AD
:100980002F5F3F4FAC014F5F5F4F0EDCC3018E19ED
:100990009F09DE0102C0B595A7958A95E2F7A0FFF1
:1009A00009C08091200190E0982F88272091210193
:1009B000822BBADDBFEFEB1AFB0A28E0E216F10446
:1009C00081F63FEFA31AB30A88E0880E911CB1CFDD
:1009D000080F191FAFEFCA1ADA0AA0CF8F9AF2DCFC
:1009E00020912E018091340190913501820F911D4B
:1009F000909335018093340180E090E0DF91CF91B6
:100A00001F910F91FF90EF90DF90CF90BF90AF902C
:100A10009F908F907F906F9008952F923F924F926A
:100A20005F926F927F928F929F92AF92BF92CF927E
:100A3000DF92EF92FF920F931F93CF93DF9300D03B
:100A400000D0CDB7DEB78B015C834B838F9890913C
:100A5000330120912F0140912E01E82EF12C9111AC
:100A6000FFC08091260181117DC030E02150310905
:100A70008B819C81280F391F50E041505109460F4E
:100A8000571FBC01C80190DB20912E0126952695A9
:100A9000269580912F0190913001E91AF108289F45
:100AA00090011124E29E8001E39E100DF29E100D34
:100AB00011240C5F1F4FE12CF12C80912E018695A3
:100AC0008695869590912F01899FC0011124E81683
:100AD000F90680F5E0912C01F0912D01E00FF11F56
:100AE000E49177E0C72ED12CAE2EB12CC5010C2C91
:100AF00002C0959587950A94E2F780FF08C080911F
:100B0000200190E0982F88272091210107C0809133
:100B1000320190E0982F882720912B01822B04DD51
:100B200091E0C91AD10810F70F5F1F4FBFEFEB1A02
:100B3000FB0AC3CF8F9A0F900F900F900F90DF9109
:100B4000CF911F910F91FF90EF90DF90CF90BF90CA
:100B5000AF909F908F907F906F905F904F903F905D
:100B60002F9030CC46954695469580913001E81AF5
:100B7000F108429F90011124E29E5001E39EB00CC7
:100B8000F29EB00C1124E4E0AE0EB11C812C912C2D
:100B900040912E01642F66956695669580912F0190
:100BA000689FC00111248816990620F670E0C401E0
:100BB00062D32B813C81620F731F50E04150510979
:100BC000400F511F9B01C801EFDAC0902E01C6945F
:100BD000C694C694D12C250131E0431A5108C114A2
:100BE000D10499F1E0912C01F0912D01C2018C0DFD
:100BF0009D1DE80FF91FE491612C712CEE2EF12C54
:100C0000C701062C02C0959587950A94E2F780FFEC
:100C100008C08091200190E0982F88272091210121
:100C200007C08091320190E0982F882720912B01F6
:100C3000822B7ADC4FEF641A740A58E0651671044F
:100C4000F9F681E0C81AD108CACF80912E018695A5
:100C50008695869590E0A80EB91E880E991E98CFAD
:100C600046954695469580913001E81AF108429FD5
:100C700090011124E29E3001E39E700CF29E700CF4
:100C8000112494E0690E711CEB80FC8080912F018F
:100C900090E09701AB81BC812A1B3B0B28173907D9
:100CA00008F048CF4801C12CD12CC70101961C0186
:100CB00080912E0186958695869590E0C816D90676
:100CC0000CF03EC0E0912C01F0912D01C601860D83
:100CD000971DE80FF91FE491C401A12CB12CAE2F90
:100CE000B0E0BA83A9832C01BFEF4B1A5B0A9101D4
:100CF000A201B70159DA87E090E08A199B09E981DE
:100D0000FA8102C0F595E7958A95E2F7E0FF09C000
:100D10008091200190E0982F882720912101822B3B
:100D200003DCFFEFAF1ABF0AC20128E0A216B1042C
:100D3000D1F63FEFC31AD30A48E0840E911CB8CF16
:100D4000680E791E7101A2CFACE2B1E011969C93BE
:100D50008E93FC01249112962C9312973196E49174
:100D60001396EC931397FC013296E4911496EC934E
:100D70001497FC013396849115968C930895AF9245
:100D8000BF92CF92DF92EF92FF920F931F93CF9378
:100D9000DF93EB018A01FC0101900020E9F7319714
:100DA0007F01E81AF90A2091260121111AC06F303B
:100DB000774271F4C0913601D0913701219640916C
:100DC0002E014E9D90014F9D300D1124C21BD30B5F
:100DD000CE30E7E2DE0751F5C0913601D091370100
:100DE00019C06F30774271F4C0912201D091230174
:100DF000219640912E014E9D90014F9D300D112462
:100E0000C21BD30BCE3027E2D20781F4C09122015E
:100E1000D0912301219640912E014E9D90014F9D2E
:100E2000300D1124C21BD30BD695C7955C01C12C84
:100E3000D12CCE14DF04C1F080912E018C9DB00125
:100E40008D9D700D11246C0F7D1FA801F5018191FE
:100E50005F01E3DD8FE99FE00197F1F700C000003B
:100E60009FEFC91AD90AE5CFDF91CF911F910F915A
:100E7000FF90EF90DF90CF90BF90AF9008958F924A
:100E80009F92AF92BF92CF92DF92EF92FF920F9319
:100E90001F93CF93DF934B015C01EA01690183D17A
:100EA0008C018091260181111BC0CF3087E2D807C9
:100EB00071F4C0913601D0913701219620912E0115
:100EC000209FC001219F900D1124C81BD90BCE304B
:100ED00097E2D90759F5C0913601D09137011AC070
:100EE000CF3087E2D80771F4C0912201D09123015D
:100EF000219620912E01209FC001219F900D112449
:100F0000C81BD90BCE3097E2D90781F4C0912201DA
:100F1000D0912301219620912E01209FC001219F75
:100F2000900D1124C81BD90BD695C795E12CF12C37
:100F3000E016F106C9F0F701E80DF91D84919091D2
:100F40002E019E9DB0019F9D700D11246C0F7D1F81
:100F5000A60163DD8FE99FE00197F1F700C0000073
:100F60009FEFE91AF90AE4CFDF91CF911F910F911A
:100F7000FF90EF90DF90CF90BF90AF909F908F90B9
:100F8000089580912A01811102C081E201C080E2AE
:100F90008F98B6D88F9A80912A01809580932A01E4
:100FA0000895EF92FF920F931F93CF93DF937C01ED
:100FB0008B01C0E1D1E0C81BD90BC61BD70B8F98A2
:100FC00083E39ED88F2DA2D88E2DA0D8812F9ED8B6
:100FD000802F9CD88D2F9AD88C2F98D88F9ADF91FC
:100FE000CF911F910F91FF90EF9008951F93CF9392
:100FF000DF931F92CDB7DEB7182F8F9887E39983C1
:101000007FD89981892F82D8812F80D88F9A0F908D
:10101000DF91CF911F9108952F923F924F925F924F
:101020006F927F928F929F92AF92BF92CF92DF92F8
:10103000EF92FF920F931F93CF93DF93CDB7DEB75D
:10104000E9970FB6F894DEBF0FBECDBF4B015C0130
:101050005FAB4EAB39AF28AFEDAA672B682B692B7E
:10106000F9F401151105C1F0CE010196FC01015002
:1010700011099F01281B390B2017310718F42DA9DE
:101080002193F7CFFC01E00FF11F20E32083FE0145
:10109000E00FF11F128267C080E389831A8263C068
:1010A0003E013CE1630E711CE12CF12C8AE0282EFC
:1010B000312C412C512CC501B401A2019101EFD07A
:1010C00020E3260FF30121933F016701FFEFCF1AC1
:1010D000DF0AA5019401261B370B480B590BCA01E7
:1010E000B901A2019101DBD049015A01232B242B24
:1010F000252B11F07601DFCFECE1F0E0EC0FFD1FC6
:10110000EC0DFD1D10829E012F5F3F4FC016D106D2
:1011100060F4F9010C191D09CF01821B930B801794
:10112000910728F44DA94193F7CF00E010E080E04B
:1011300090E0FC01E00FF11FE20FF31FD701A81BA5
:10114000B90B4CE150E04C0F5D1FA40FB51F4C9143
:10115000408301968C159D0561F7020F131FF8015E
:10116000E80FF91F108248AD59AD6EA97FA9CE01D5
:10117000019605DEE9960FB6F894DEBF0FBECDBF2F
:10118000DF91CF911F910F91FF90EF90DF90CF9063
:10119000BF90AF909F908F907F906F905F904F9097
:1011A0003F902F900895FB0105900020E9F760958E
:1011B00070956E0F7F1FCB010895CF93DF93CDB74E
:1011C000DEB7A0970FB6F894DEBF0FBECDBF6E9A04
:1011D000769A2FEF83EC99E0215080409040E1F720
:1011E00000C000007698EFEFF3EC29E0E150F0400A
:1011F0002040E1F700C00000769A8FEF93ECE9E021
:1012000081509040E040E1F700C00000769881E016
:10121000809326010E949A00809126010AD840E01E
:1012200060E080E00E94AA004FEF6FEF8FEF0E9416
:10123000BE0080E2E0E0F1E0DE01119601900D9247
:101240008A95E1F77E01F1E2EF0EF11C8E010F5F4E
:101250001F4FF801819191918F013CD9FFEF27EA4F
:1012600081E6F15020408040E1F700C000000E15FB
:101270001F0579F7EBCFAA1BBB1B51E107C0AA1FC3
:10128000BB1FA617B70710F0A61BB70B881F991F27
:101290005A95A9F780959095BC01CD010895A1E2DA
:1012A0001A2EAA1BBB1BFD010DC0AA1FBB1FEE1FE0
:1012B000FF1FA217B307E407F50720F0A21BB30B2B
:1012C000E40BF50B661F771F881F991F1A9469F7A7
:1012D00060957095809590959B01AC01BD01CF0103
:1012E0000895A29FB001B39FC001A39F700D811DFF
:1012F0001124911DB29F700D811D1124911D08951F
:04130000F894FFCF8F
:101304000000FFFF00F800041F0018C610840080CE
:10131400E0FF0084E007FF07100410001FF81080AE
:00000001FF
